:020000040800F2
:1000000000000824B1140008C9120008D112000829
:10001000D9120008E1120008E912000800000000EF
:10002000000000000000000000000000C16900089E
:10003000F112000800000000816C0008FF120008A7
:100040000515000805150008051500080515000828
:100050000515000805150008051500080515000818
:100060000515000805150008051500080515000808
:1000700005150008051500080515000805150008F8
:1000800005150008051500080515000811130008DE
:1000900005150008051500080515000805150008D8
:1000A00005150008051500080515000805150008C8
:1000B00005150008051500080515000805150008B8
:1000C00005150008051500080515000805150008A8
:1000D0000515000805150008051500080515000898
:1000E00005150008051500080000000005150008AA
:1000F0000515000805150008051500080515000878
:100100000515000805150008051500080515000867
:100110000515000805150008051500080515000857
:100120000515000805150008051500080515000847
:100130000515000805150008051500080515000837
:10014000051500080515000800000000000000006B
:100150000515000805150008051500080515000817
:100160000515000805150008051500080515000807
:100170000515000805150008051500080000000019
:1001800005150008051500080515000805150008E7
:1001900005150008051500080515000805150008D7
:1001A00005150008051500080515000805150008C7
:1001B00005150008051500080515000805150008B7
:1001C00005150008051500080515000805150008A7
:1001D0000515000805150008051500080515000897
:1001E0000515000805150008051500080515000887
:1001F0000515000805150008051500080515000877
:100200000515000805150008051500080515000866
:100210000515000805150008051500080515000856
:100220000515000805150008051500080000000068
:100230000515000805150008051500080515000836
:100240000515000805150008051500080515000826
:100250000515000805150008051500080515000816
:100260000515000805150008051500080515000806
:1002700005150008051500080515000805150008F6
:100280000515000805150008051500080000000008
:08029000051500080515000822
:1002A00010B5054C237833B9044B13B10448AFF3B0
:1002B00000800123237010BDBC000024000000005A
:1002C0005CB4000808B5034B1BB103490348AFF306
:1002D000008008BD00000000C00000245CB40008DD
:1002E000034613F8012B002AFBD1181A0138704776
:1002F00001F0FF01102A2BDB10F0070F08D010F8D7
:10030000013B013A8B422DD010F0070F42B3F6D1DA
:10031000F0B441EA012141EA014122F007047FF0F3
:1003200000070023F0E80256083C85EA010586EA4A
:10033000010685FA47F5A3FA87F586FA47F6A5FA86
:1003400087F68EB9EED1F0BC01F0FF0102F0070292
:1003500032B110F8013B013A83EA010313B1F8D13D
:100360000020704701387047002D06BF354603381E
:10037000073815F0010F07D1013015F4807F02BF57
:10038000013015F4C03F0130F0BC0138704700BFA8
:1003900080B400AF494BD3F88830484A43F4700327
:1003A000C2F88830454B1B69444A43F0100313617F
:1003B000434B1B6803F00F03062B07D8404B1B6809
:1003C00023F00F033E4A43F0070313603D4B1B68C5
:1003D0003C4A43F0010313603A4B00221A61394B47
:1003E0001A683849384B13400B60354B1B6803F0D3
:1003F0000803002B07D0324B1B6823F00F03304A51
:1004000043F0070313602F4B00229A612D4B00220B
:10041000DA612C4B00221A622A4B2C4A9A62294B31
:100420002B4ADA62274B2B4A1A63264B00225A6367
:10043000244B284A9A63234B0022DA63214B254A36
:100440001A64204B00225A641E4B1B681D4A23F479
:10045000802313601B4B00221A661F4B5B6A1E4AE7
:1004600043F4804353621D4B1A681D4B1340B3F194
:10047000005F02D21B4B01221A60124BD3F8D4301A
:1004800003F48053002B13D10E4BD3F8D4300D4A14
:1004900043F48053C2F8D430134B43F2D2021A60B3
:1004A000084BD3F8D430074A23F48053C2F8D43031
:1004B00000BFBD465DF8047B704700BF00ED00E063
:1004C00000200052004402587FEDF6EA00020202CA
:1004D0000000FF0180020101C00000580010005C14
:1004E0000000FFFF088100510040005280B400AFBF
:1004F0000A4BDB6823F00603084A43F00203D3608B
:1005000000BF064B5B6803F40053002BF9D000BF1B
:1005100000BFBD465DF8047B704700BF004802582D
:1005200080B400AF054B1B68044A43F4803313606A
:1005300000BFBD465DF8047B704700BF0044025811
:1005400080B400AF074B1B6803F40033B3F5003FE2
:1005500001D1012300E000231846BD465DF8047B6D
:10056000704700BF0044025880B483B000AF786089
:10057000064B1B6923F0070204497B6813430B6198
:1005800000BF0C37BD465DF8047B7047004402583D
:1005900080B400AF044B1B6903F038031846BD4616
:1005A0005DF8047B704700BF0044025880B483B0FC
:1005B00000AF7860064B9B6923F4706204497B6846
:1005C00013438B6100BF0C37BD465DF8047B704759
:1005D0000044025880B483B000AF7860064B9B693A
:1005E00023F00F0204497B6813438B6100BF0C3773
:1005F000BD465DF8047B70470044025880B483B068
:1006000000AF7860064BDB6923F0700204497B6819
:100610001343CB6100BF0C37BD465DF8047B7047C8
:100620000044025880B483B000AF7860064BDB69A9
:1006300023F4E06204497B681343CB6100BF0C37AD
:10064000BD465DF8047B70470044025880B483B017
:1006500000AF7860064B9B6923F0700204497B6809
:1006600013438B6100BF0C37BD465DF8047B7047B8
:100670000044025880B483B000AF7860064B1B6A18
:1006800023F0700204497B6813430B6200BF0C37F0
:10069000BD465DF8047B70470044025880B485B0C5
:1006A00000AF78607B68DAB2104B1344FB60FB68E4
:1006B0001A687B68190E7B681B0A03F01F0301FA96
:1006C00003F3DB431A407B681B0CD9B27B681B0A1F
:1006D00003F01F0301FA03F31A43FB681A6000BF1B
:1006E0001437BD465DF8047B704700BF4C44025888
:1006F00080B582B000AF78607868FFF7CFFF00BFA9
:100700000837BD4680BD000080B483B000AF78607C
:10071000064B9B6A23F0030204497B6813438B62F8
:1007200000BF0C37BD465DF8047B7047004402589B
:1007300080B400AF054B1B68044A43F0807313601C
:1007400000BFBD465DF8047B704700BF00440258FF
:1007500080B400AF074B1B6803F00073B3F1007F58
:1007600001D1012300E000231846BD465DF8047B5B
:10077000704700BF0044025880B400AF054BDB6AED
:10078000044A43F48033D36200BFBD465DF8047B66
:10079000704700BF0044025880B400AF054BDB6ACD
:1007A000044A43F40033D36200BFBD465DF8047BC6
:1007B000704700BF0044025880B400AF054BDB6AAD
:1007C000044A43F48023D36200BFBD465DF8047B36
:1007D000704700BF0044025880B483B000AF786017
:1007E000074BDB6A23F002027B685B00044913437A
:1007F000CB6200BF0C37BD465DF8047B704700BF7D
:100800000044025880B483B000AF7860074BDB6AC5
:1008100023F00C027B689B0004491343CB6200BFAA
:100820000C37BD465DF8047B704700BF004402589A
:1008300080B483B000AF7860074B1A6B074B13404E
:100840007A68013A044913430B6300BF0C37BD4675
:100850005DF8047B704700BF0044025800FEFFFFB4
:1008600080B483B000AF7860074B9B6A23F47C723E
:100870007B681B01044913438B6200BF0C37BD46E4
:100880005DF8047B704700BF0044025880B483B019
:1008900000AF7860074B1B6B23F47E427B68013B03
:1008A0005B02044913430B6300BF0C37BD465DF880
:1008B000047B70470044025880B483B000AF786076
:1008C000074B1B6B23F4FE027B68013B1B040449AE
:1008D00013430B6300BF0C37BD465DF8047B7047C4
:1008E0000044025880B483B000AF7860074B1B6BA4
:1008F00023F0FE427B68013B1B06044913430B6354
:1009000000BF0C37BD465DF8047B704700440258B9
:1009100080B485B000AF78600A4BD3F8E020094975
:100920007B681343C1F8E030064BD3F8E0207B68C6
:100930001340FB60FB6800BF1437BD465DF8047BC5
:10094000704700BF0044025880B485B000AF7860A3
:100950000A4BD3F8F02009497B681343C1F8F03003
:10096000064BD3F8F0207B681340FB60FB6800BFA8
:100970001437BD465DF8047B704700BF0044025841
:1009800080B483B000AF7860064B1B6823F00F0281
:1009900004497B6813430B6000BF0C37BD465DF80C
:1009A000047B70470020005280B400AF044B1B68EA
:1009B00003F00F031846BD465DF8047B704700BF87
:1009C0000020005280B483B000AF7860084A7B6892
:1009D00043F001035360BFF34F8F00BFBFF36F8F2E
:1009E00000BF00BF0C37BD465DF8047B704700BFF9
:1009F00090ED00E080B400AFBFF35F8F00BF044B09
:100A000000225A6000BFBD465DF8047B704700BFFE
:100A100090ED00E080B485B000AFF860B9607A6016
:100A20003B600B4AFB689360094A7B6823F01F0315
:100A3000D360BB681A023B681343054A43F00103C5
:100A4000136100BF1437BD465DF8047B704700BFDB
:100A500090ED00E080B483B000AF7860064BDB68B7
:100A600023F03F0204497B681343CB6000BF0C377F
:100A7000BD465DF8047B70470048025880B483B0DF
:100A800000AF7860064B9B6923F4404204497B68C1
:100A900013438B6100BF0C37BD465DF8047B704784
:100AA0000048025880B400AF074B9B6903F4005321
:100AB000B3F5005F01D1012300E000231846BD46D5
:100AC0005DF8047B704700BF0048025880B483B0D3
:100AD00000AF78607B681B6843F001027B681A6096
:100AE00000BF0C37BD465DF8047B704780B483B00F
:100AF00000AF78607B681B6823F000527B681A6047
:100B000000BF0C37BD465DF8047B704780B489B0E8
:100B100000AF786039607B680833FB60FB6853E89E
:100B2000003FBB60BB6823F060423B685B07134338
:100B3000FB617B680833FA69BA617B617969BA69DC
:100B400041E800233B613B69002BE4D100BF00BFBB
:100B50002437BD465DF8047B704780B489B000AF90
:100B6000786039607B680833FB60FB6853E8003FBE
:100B7000BB60BB6823F060623B685B061343FB61AC
:100B80007B680833FA69BA617B617969BA6941E8BF
:100B900000233B613B69002BE4D100BF00BF243739
:100BA000BD465DF8047B704780B483B000AF7860C9
:100BB0007B685B6823F490427B685A607B689B6823
:100BC00023F02A027B689A6000BF0C37BD465DF8AF
:100BD000047B704780B483B000AF78607B68DB69CA
:100BE00003F40013B3F5001F01D1012300E000233B
:100BF00018460C37BD465DF8047B704780B483B05F
:100C000000AF78607B68DB6903F48003B3F5800F85
:100C100001D1012300E0002318460C37BD465DF8E2
:100C2000047B704780B483B000AF786039607B6824
:100C30003A689A6100BF0C37BD465DF8047B704787
:100C400080B483B000AF786039603B681A047B6879
:100C50009A6100BF0C37BD465DF8047B7047000009
:100C600080B483B000AF78607B6801221A707B6823
:100C7000134A5A607B68134A9A607B68124ADA60AA
:100C80007B680A221A747B680A225A747B681922CC
:100C90009A747B681822DA747B6814221A757B6850
:100CA0000A22DA827B684FF480721A837B68002202
:100CB000DA6100BF0C37BD465DF8047B704700BFAA
:100CC00074B4000880B4000888B4000880B588B007
:100CD00002AF7860234B7B61234B1978002300938C
:100CE0004FF47A730822022001F01AFA38613B6946
:100CF000002B04D14FF47A7004F02CFA30E07869BC
:100D0000FFF7EEFAF860F86800F066FEB860BB68BE
:100D1000002B07D1386901F09EF94FF47A7004F086
:100D200019FA1DE0BB681033FA687969184609F0B2
:100D3000FCFDFB689AB2BB685A814FF47A72B968BD
:100D4000386901F0F9FD0346002B02D0B86800F0C5
:100D5000DFFE386901F07FF94FF47A7004F0FAF998
:100D6000BAE700BF94B400080800002480B586B03C
:100D700000AF7860002001F029FC7861FF217869DC
:100D800001F08CFE0A21786901F062FE4FF47A715D
:100D9000786901F0A5FC38613B69002B2CD01CE080
:100DA000386901F0BDFA0346082B01D00A2B13D194
:100DB000124B9B78002B06D0FB6810331A46104963
:100DC000022001F0BDFAF86800F0A2FE0D4B1B688E
:100DD00001330C4A136000E000BF6421386901F060
:100DE000A1FCF860FB68002BDAD1386901F033F917
:100DF000642004F0AFF9C9E700BFC7E70C00002486
:100E000098B400087801002480B582B002AF00F0E9
:100E1000BFF906F093FA00F049F800F08DF900F000
:100E20001DF900F0B7F84FF480411848FFF7FAFEBB
:100E30001748FFF715FF164801F084FB02F0D6F9BA
:100E400006214FF4FA7002F077F9124B187801235B
:100E5000114A052102F08EFD002301930423009323
:100E600000234FF4A0620D490D4804F024F800233C
:100E700001930623009300234FF4A06209490A4816
:100E800004F019F804F006FA00BFFDE7000C025860
:100E9000A801002408000024D8010024C0B40008E0
:100EA000CD0C0008CCB400086D0D000880B500AF73
:100EB0000220FFF765FD00BFFFF776FD0346022B1A
:100EC000FAD10220FFF7C6FD4FF48040FFF7D6FDB0
:100ED00000BFFFF7E7FD0346002BFAD0FFF720FB2A
:100EE00000BFFFF72DFB0346012BFAD10220FFF7CD
:100EF0000BFCFFF741FCFFF74FFCFFF75DFC032005
:100F0000FFF780FC0020FFF767FC0220FFF7A8FC3A
:100F10001020FFF78DFC0220FFF7B8FC0420FFF73C
:100F2000CBFC0220FFF7DEFCFFF702FC00BFFFF75F
:100F30000FFC0346012BFAD10820FFF74BFB0320DF
:100F4000FFF712FB00BFFFF723FB0346182BFAD174
:100F50000020FFF72BFB0020FFF73CFB0020FFF7F2
:100F60004DFB4FF48060FFF75DFB0020FFF76EFB49
:100F70000020FFF77FFB064809F0ACF90F2006F0D0
:100F800019FA0346002B01D000F014F900BF80BD10
:100F900000E1F50580B500AF2E4B2F4A1A602D4BAE
:100FA00000229A602B4B0022DA602A4B00221A742E
:100FB000284B00225A74274B00229A74254B0A2290
:100FC0005A61244B01229A61224B0822DA61214B9B
:100FD00001221A621F4B01225A621E4B01229A62A1
:100FE0001C4B0122DA621B4B01221A63194B0022AF
:100FF0005A63184B01229A63164B0022DA63154B91
:1010000008221A64134B04225A64124B00229A6479
:10101000104B0422DA640F4B00221A650D4B042298
:101020005A650C4B00229A650A4B0022DA65094B7F
:1010300008221A66074B00225A66064B04229A665B
:10104000044806F01DFB0346002B01D000F0B2F867
:1010500000BF80BDD800002400A0004080B58EB045
:1010600000AF07F1180320220021184609F0C2FB47
:101070003B4600221A605A609A60DA601A615A612F
:101080002A48FFF735FB1020FFF75EFC0120FFF731
:101090003FFC4FF4C0633B6002237B600023BB60D6
:1010A0000023FB6000233B6107237B613B4619461D
:1010B0001F4808F0B7F80023BB614FF4E133FB6130
:1010C00000233B6200237B620023BB620C23FB6294
:1010D00000233B6300237B6307F11803194615487F
:1010E00009F04EF800211348FFF710FD00211148C8
:1010F000FFF733FD0F48FFF7F9FC0E48FFF754FDEB
:101100000C48FFF7E3FC00BF0A48FFF763FD034606
:10111000002BF9D00748FFF771FD0346002BF3D0F1
:1011200000BF00BF3837BD4680BD00BF08030007C1
:10113000000002580010014080B586B000AF3B4669
:1011400000221A605A609A60DA601A615A610820B7
:10115000FFF7DEFB0120FFF7DBFB4FF480410B487C
:10116000FFF76EFD4FF480433B6001237B6000235B
:10117000BB600023FB6000233B613B4619460348EC
:1011800008F050F800BF1837BD4680BD000C02586B
:1011900080B500AFFFF72EFC054B00228721002011
:1011A000FFF738FC0420FFF70DFC00BF80BD00BF37
:1011B0003E00041080B400AF72B600BF00BFFDE770
:1011C00080B483B000AF7860064B1B6D23F04052B3
:1011D00004497B6813430B6500BF0C37BD465DF8BF
:1011E000047B70470044025880B483B000AF0A4BC0
:1011F000D3F8F430084A43F00203C2F8F430064B47
:10120000D3F8F43003F002037B607B6800BF0C3737
:10121000BD465DF8047B70470044025880B58AB033
:1012200000AF786007F1140300221A605A609A60D8
:10123000DA601A617B681B68204A934239D14FF00B
:101240008050FFF7BDFF1E4BD3F8EC301C4A43F42F
:101250008073C2F8EC301A4BD3F8EC3003F480738F
:101260003B613B69164BD3F8E030154A43F0080365
:10127000C2F8E030124BD3F8E03003F00803FB6013
:10128000FB6803237B610223BB610023FB61002316
:101290003B6209237B6207F114031946094807F0F2
:1012A000BDFB00220521132006F0B5F9132006F03E
:1012B000CCF900BF2837BD4680BD00BF00A000406C
:1012C00000440258000C025880B400AF00BFFDE794
:1012D00080B400AF00BFFDE780B400AF00BFFDE702
:1012E00080B400AF00BFFDE780B400AF00BFFDE7F2
:1012F00080B400AF00BFBD465DF8047B704780B589
:1013000000AF06F08DF805F0EFFC00BF80BD0000D7
:1013100080B500AF024806F073FE00BF80BD00BF7D
:10132000D800002480B400AF01231846BD465DF804
:10133000047B704780B582B000AF7860396009F0F7
:10134000C7FA034616221A604FF0FF3318460837D3
:10135000BD4680BD80B582B000AF78604FF0FF31F0
:101360007868FFF7E7FF00BFFDE780B586B000AF04
:10137000F860B9607A6000237B610AE0AFF3008017
:101380000146BB685A1CBA60CAB21A707B69013345
:101390007B617A697B689A42F0DB7B681846183774
:1013A000BD4680BD80B586B000AFF860B9607A6098
:1013B00000237B6109E0BB685A1CBA601B781846A1
:1013C000AFF300807B6901337B617A697B689A4265
:1013D000F1DB7B6818461837BD4680BD80B483B00A
:1013E00000AF78604FF0FF3318460C37BD465DF80C
:1013F000047B704780B483B000AF786039603B688D
:101400004FF400525A60002318460C37BD465DF871
:10141000047B704780B483B000AF78600123184626
:101420000C37BD465DF8047B704780B485B000AFD3
:10143000F860B9607A60002318461437BD465DF83D
:10144000047B704780B586B000AF7860144A154BB6
:10145000D31A7B617B693B61134B1B68002B02D164
:10146000114B124A1A60104B1A687B6813443A6990
:101470009A4207D209F02CFA03460C221A604FF068
:10148000FF3309E0084B1B68FB60074B1A687B6859
:101490001344054A1360FB6818461837BD4680BDE3
:1014A00000000824000400007C010024200D042416
:1014B000DFF838D0FFF71AF8FEF76AFF0C480D493D
:1014C0000D4A002302E0D458C4500433C4188C429F
:1014D000F9D30A4A0A4C002301E013600432A24205
:1014E000FBD309F0FBF9FFF78FFC704700000824DD
:1014F00000000024BC0000241CC50008BC0000241F
:101500001C0D0424FEE7000080B582B000AF00F09F
:10151000AFF97860074B1B68002B02D1054A7B6846
:101520001360044B1B687A68D31A18460837BD4607
:1015300080BD00BF8001002480B582B000AF78601C
:10154000786805F06BFC034618460837BD4680BD39
:1015500080B584B000AF786039603B687A6802FB80
:1015600003F33B603868FFF7E7FFF860FB68002B88
:1015700004D03A680021F86809F03CF9FB68184685
:101580001037BD4680BD80B582B000AF7860786806
:1015900005F082FD00BF0837BD4680BD80B582B032
:1015A00000AF786039607B6800223968184602F025
:1015B000B2FC034618460837BD4680BD80B582B0F0
:1015C00000AF7860786803F09AF900BF0837BD462D
:1015D00080BD80B584B000AFF860B9607A607B6888
:1015E000B3F1FF3F00237A68B968F86802F00CFD98
:1015F000034618461037BD4680BD80B584B000AFA5
:10160000F860B9607A6000237A68B968F86802F017
:1016100005FE034618461037BD4680BD80B584B030
:1016200000AFF860B9607A607B68B3F1FF3F7A6819
:10163000B968F86802F0B2FE034618461037BD4696
:1016400080BD80B584B000AFF860B9607A607A6818
:10165000B968F86803F090F8034618461037BD469D
:1016600080BD80B582B000AF7860786803F026F95D
:10167000034618460837BD4680BD80B582B000AF2E
:10168000786003220021012002F045FC02467B68BD
:101690001A607B681B68002B06D07B6818680023E3
:1016A0000022002102F0B0FC012318460837BD4695
:1016B00080BD000080B582B000AF786039600E4B0D
:1016C0009B79002B04D07A680C49062000F038FE84
:1016D0003B68B3F1FF3F7B681B683968184602F02E
:1016E00045FF0346012B01D1012300E000231846EA
:1016F0000837BD4680BD00BF0C000024D8B40008E8
:1017000080B582B000AF78600C4B9B79002B04D081
:101710007A680B49062000F013FE7B6818680023E6
:101720000022002102F070FC0346012B01D10123AD
:1017300000E0002318460837BD4680BD0C00002499
:10174000E4B4000880B584B000AF0346FB71FB79B8
:1017500003F00F03013B072B2AD801A252F823F014
:1017600081170008871700088D17000893170008D5
:10177000991700089F170008A5170008AB17000865
:101780001E23FB6017E01F23FB6014E02023FB6097
:1017900011E02123FB600EE02223FB600BE02323FA
:1017A000FB6008E02423FB6005E02523FB6002E0EA
:1017B0000023FB6000BFFB7903F0F003402B13D044
:1017C000402B14DC302B0CD0302B10DC102B02D033
:1017D000202B03D00BE00123BB600BE00223BB6096
:1017E00008E00323BB6005E00423BB6002E00023A4
:1017F000BB6000BFFA68B968034808F0A9FE00BFE3
:101800001037BD4680BD00BFF0B4000880B588B079
:1018100002AFF860B9607A603B6007F11003019392
:101820003B6A00933B687A68B968F86803F043FB49
:1018300078617B69012B02D04FF0FF3306E07B6AB1
:10184000002B02D03A697B6A1A60002318461837C9
:10185000BD4680BD80B500AF03F07CFE0346184650
:1018600080BD80B500AF03F085FE0346184680BDFD
:1018700080B500AF03F06EFE0346034AA2FB0323CC
:101880009B09184680BD00BFD34D621080B584B05F
:1018900000AF00F0B5F903460B3323F00303BB6040
:1018A000234BDB8A1A46BB6802FB03F31846FFF79B
:1018B00043FE03461F4A13601E4B1B68002B30D0AB
:1018C0001B4BDB8A04211846FFF768FE03461A4AC1
:1018D0001360194B1B68002B1FD00023FB6014E022
:1018E000144B1A68FB68B96801FB03F313447B606F
:1018F0007B687A685A60104B1B68391D00221846B5
:10190000FFF767FEFB680133FB60094BDB8A1A4671
:10191000FB689342E4D3002306E000BF00F00EF81A
:1019200000E000BF4FF0FF3318461037BD4680BDC2
:10193000A8010024880100248401002480B500AFA0
:101940000A4B1B68002B07D0084B1B681846FFF793
:1019500035FE064B00221A60054B1B681846FFF740
:1019600012FE034B00221A6000BF80BD84010024D8
:101970008801002480B584B000AF7860144B1B8BC5
:101980001A467B68934201D900231DE00023FB60C7
:101990000023BB600F4B1B6807F1080207F10C0125
:1019A0001846FFF74EFEFB68002B01D100230BE029
:1019B000FB685A68FB689A4201D0002304E0FB6888
:1019C00001221A60FB68083318461037BD4680BDF7
:1019D000A80100248401002480B584B000AF7860A1
:1019E000274B1B8B1A467B6893420CD9254B1B78DF
:1019F000002B06D0224B1B8B7A682349002000F075
:101A00009FFC002337E00023FB60204B1B6807F19D
:101A10000C0100221846FFF701FEFB68002B09D1DC
:101A2000184B1B78002B03D01949002000F088FCCC
:101A3000002320E0FB685A68FB689A420CD0114BE7
:101A40001B78002B06D0FA68FB685B681149002000
:101A500000F076FC00230EE00A4BDB78002B05D06B
:101A6000FB681A460C49032000F06AFCFB6801225F
:101A70001A60FB68083318461037BD4680BD00BFAA
:101A8000A80100240C000024FCB4000884010024F8
:101A900038B500084CB5000870B5000880B584B0B2
:101AA00000AF78607B68002B23D07B68083BFB602D
:101AB000FB6803F00303002B1DD1FB685A68FB6829
:101AC0009A421AD1FB681B68002B18D0FB681A6871
:101AD000013A1A601B68002B13D10023BB600B4B2B
:101AE0001B6807F1080207F10C011846FFF785FD96
:101AF00008E000BF06E000BF04E000BF02E000BF56
:101B000000E000BF1037BD4680BD00BF8401002447
:101B100080B584B000AF78607B68002B55D07B68BF
:101B2000083BFB60FB6803F00303002B09D02D4B3F
:101B30001B78002B4BD07A682B49002000F000FC6A
:101B400045E0FB685A68FB689A4209D0254B1B7830
:101B5000002B3ED07A682549002000F0F1FB38E0E8
:101B6000FB681B68002B0AD11E4B1B78002B32D060
:101B7000FB681A461E49002000F0E2FB2BE0FB68E0
:101B80001A68013A1A601B68002B0BD0154B1B78A2
:101B9000002B22D0FA68FB681B681649002000F071
:101BA000CFFB1AE00F4BDB78002B05D0FB681A4601
:101BB0001149032000F0C4FB104B1B6807F10C0116
:101BC00000221846FFF705FD08E000BF06E000BF51
:101BD00004E000BF02E000BF00E000BF1037BD46D8
:101BE00080BD00BF0C00002478B50008A0B5000837
:101BF000C4B50008E4B5000808B600088401002454
:101C000080B400AF034B1B8B10331846BD465DF804
:101C1000047B7047A801002480B400AF034B1B8BEA
:101C20001846BD465DF8047B704700BFA80100243C
:101C300080B483B000AF7860002318460C37BD46EF
:101C40005DF8047B7047000090B585B000AF786008
:101C500039607B68002B02D16FF0010339E03B68EB
:101C6000002B09D03B68DB7BC3F38113DBB2184642
:101C7000FFF7DEFFF86001E00023FB607A68FB6895
:101C800002339B0013445B68394600221846FFF775
:101C9000A0FC0346012B1BD0104B1B78002B14D04B
:101CA0007A68FB6802339B0013445C687A68FB68BF
:101CB00002339B0013445B681846FFF7D2FC0346CF
:101CC00022460749002000F03BFB4FF0FF3300E0C5
:101CD000002318461437BD4690BD00BF0C000024F9
:101CE00014B6000880B584B000AF4D4B1B7C1C219E
:101CF0001846FFF72DFC03464A4A1360494B1B6800
:101D0000002B0DD1484B1B78002B06D0444B1B7C7D
:101D10001A464649002000F013FB4FF0FF337BE0EA
:101D20004348FFF7AAFC0346012B0AD03E4B1B7821
:101D3000002B03D03F49002000F002FB4FF0FF339F
:101D40006AE0FFF787FD0346184608F0D3FA08F06B
:101D5000FFFA0246324BDB7CC3F13F0392FBF3F107
:101D600001FB03F3D31ADAB22D4BDB7C1344DBB255
:101D70000133DAB2304B1A703048FFF77EFC03466D
:101D8000012B0AD0284B1B78002B03D02C490020B4
:101D900000F0D6FA4FF0FF333EE00023FB6034E062
:101DA000204B1968FA681346DB009B1A9B000B4412
:101DB0007B600023BB6022E0194B5B7C042118464A
:101DC000FFF7ECFB01467A68BB6802339B001344C3
:101DD00059607A68BB6802339B0013445B68002B30
:101DE0000AD1114B1B78002B03D01649002000F0BC
:101DF000A7FA4FF0FF330FE0BB680133BB60BB684D
:101E0000002BD9DDFB680133FB60054B1B7C1A46B8
:101E1000FB689342C4DB002318461037BD4680BDE3
:101E2000A80100248C0100240C00002434B6000812
:101E3000900100245CB6000894010024980100245D
:101E400084B60008ACB6000880B485B000AF7860F6
:101E500039607A683B6813407B600023FB601CE0BC
:101E6000144B1968FA681346DB009B1A9B000B445D
:101E7000BB60BB685B78012B0CD1BB681B78002B67
:101E800008D1BB685A683B6813407A689A4201D10E
:101E9000BB6809E0FB680133FB60074B1B7C1A46FB
:101EA000FB689342DCDB002318461437BD465DF81F
:101EB000047B70478C010024A801002480B584B005
:101EC00000AF78600023FB6018E0BB68002B03D0F4
:101ED000BB681846FFF71CFE7A68FB6802339B005C
:101EE00013445B6807F1080100221846FFF796FBD0
:101EF0000346012BE9D0FB680133FB60FB68002B34
:101F0000EADD002318461037BD4680BD80B586B097
:101F100000AF0346FB714FF0FF313848FFF7CAFBB3
:101F20000346012B09D0364B1B78002B03D03549D3
:101F3000002000F005FA00235BE000237B61324BB8
:101F40001B783B610023FB6019E03B6901332F4A9A
:101F5000127C93FBF2F101FB02F29B1A3B612C4BCA
:101F600019683A691346DB009B1A9B000B447B619E
:101F70007B695B78002B09D0FB680133FB60234B46
:101F80001B7C1A46FB689342DFDB00E000BF7B69E5
:101F9000002B1AD07B695B78002B16D17B6900225D
:101FA0005A607B6900229A607B6900221A617B6912
:101FB00000225A617B69FA791A707B6901225A7092
:101FC0003B69DAB2104B1A7001E000237B610B48C9
:101FD000FFF796FB7B69002B0AD1094B1B78002B7E
:101FE00006D00A4B1B7C1A460A49002000F0A8F9CB
:101FF0007B6918461837BD4680BD00BF900100249C
:102000000C000024D4B600089C010024A801002480
:102010008C010024F0B6000880B584B000AF786071
:1020200039600020FFF772FFF860FB68002B0DD0CD
:102030007A68FB685A603A68FB689A60FFF70AFCA6
:102040000246FB685A61F868FFF738FFFB681846DC
:102050001037BD4680BD80B582B000AF78600121E9
:10206000786800F005F8034618460837BD4680BD7D
:1020700080B582B000AF78600B46FB707B68002BA8
:1020800001D1002340E07B685B78002B09D1204B15
:102090005B79002B03D01F49052000F051F9002384
:1020A00032E04FF0FF311C48FFF704FB0346012BE1
:1020B0000AD0174B1B78002B03D01849002000F0E2
:1020C0003FF96FF002031FE07B6800225A707868C6
:1020D000FFF7F4FE7B681B69002B11D07B681B782F
:1020E000012B0DD17B689B6903F48853002B07D02B
:1020F0007B681B691846FFF761FA7B6800221A614A
:102100000548FFF7FDFA002318460837BD4680BD95
:102110000C0000240CB7000890010024D4B600087D
:1021200080B586B000AF3B600346FB710B46BB71C8
:1021300013467B71724BDB693A6A13433B62FB794E
:1021400003F00303DAB2FB7B62F38713FB736C4B80
:102150001B7803F01F03DAB2FB8962F30813FB81DB
:10216000BB7903F01F03DAB2FB7B62F34503FB7319
:102170007B7903F03F03DAB27B7B62F305037B7369
:1021800000233B73FB7903F00303DAB2FB7A62F3BB
:102190008713FB72BB7903F01F03DAB27B8962F30A
:1021A00008137B81564B1B7803F01F03DAB2FB7ACE
:1021B00062F34503FB727B7903F03F03DAB2BB683D
:1021C00062F39333BB6000233B723B6A03F08003EE
:1021D000002B03D03B6A23F040033B623B6A03F0D1
:1021E0000103002B09D0474B1B78002B03D0464935
:1021F000002000F0A5F800237EE03B6A03F0040312
:10220000002B09D03F4B1B78002B03D03F49002007
:1022100000F096F800236FE03B6A03F01003002BF8
:1022200009D0384B1B78002B03D03949002000F02F
:1022300087F8002360E03B6A03F04003002B09D0DD
:10224000304B1B78002B03D03249002000F078F887
:10225000002351E000237B614FF0FF312E48FFF750
:1022600029FA0346012B01D0002345E02B4B1B78B4
:10227000FB742AE0294B1B783F2B05D9204BDB7CD4
:102280000133DAB2254B1A70244B1B7803F03F035D
:10229000DAB27B7A62F305037B72204B1B7803F082
:1022A0003F03DAB2FB6862F39333FB60FB684FF4E1
:1022B0007C211846FFF7C8FD0346002B05D1B968FD
:1022C000F868FFF7A9FE78610AE0144B1B78013328
:1022D000DAB2124B1A70114B1B78FA7C9A42C9D1B0
:1022E0000D48FFF70DFA7B69002B01D1002303E0B5
:1022F0007B693A6A9A617B6918461837BD4680BD8A
:10230000A80100240C00002420B700086CB70008C6
:10231000C8B7000820B800089801002494010024E0
:1023200080B483B000AF78607B685B68C3F38533AB
:10233000DBB218460C37BD465DF8047B70470000E1
:102340000EB480B585B000AF0346FB71F023FB608F
:10235000FB79062B4FD8FB792B4AD35C83F0010322
:10236000DBB2002B47D1FB79062B46D801A252F8ED
:1023700023F000BF972300089D2300089123000845
:10238000A3230008A9230008AF230008B5230008F1
:102390001323FB6011E01223FB600EE01423FB60AB
:1023A0000BE00623FB6008E00323FB6005E0052348
:1023B000FB6002E00723FB6000BF07F12003BB6066
:1023C000124B1B68002B06D0104B1B68F879BA68BB
:1023D000F969984712E0FB68DBB21846FFF7B2F9DB
:1023E000B968F86908F068F9094808F019F9F020A7
:1023F000FFF7A8F902E000BF00E000BF1437BD46B8
:10240000BDE8804003B070470C000024A001002408
:10241000DCB8000880B483B000AF0346FB80FB88C3
:102420001B0A9BB21AB2B7F906301B021BB2134348
:102430001BB29BB218460C37BD465DF8047B704753
:1024400080B582B000AF0346FB80FB881846FFF7DB
:10245000E1FF034618460837BD4680BD80B483B00F
:1024600000AF78607B681A0E7B681B061A437B6896
:102470001B0203F47F031A437B681B0A03F47F43A8
:10248000134318460C37BD465DF8047B704780B592
:1024900082B000AF78607868FFF7E0FF0346184627
:1024A0000837BD4680BD000080B584B000AF7860BD
:1024B0007B680022DA63184B1B68002B03D1164A95
:1024C0007B68136022E00023FB60134B1B68BB603A
:1024D00016E0BA687B689A420AD07B681868BB68C5
:1024E0001B680A22194608F08DF90346002B02D119
:1024F0006FF006030BE0BB68FB60BB68DB6BBB6087
:10250000BB68002BE5D1FB687A68DA6300231846C4
:102510001037BD4680BD00BFA401002480B582B045
:1025200000AF03463960FB711346BB71BB79F87984
:102530003A68052101F01EFA034618460837BD46E1
:1025400080BD000080B584B000AF7860FEF7DCFF8E
:10255000202279681B4808F0E8F9FFF797F9F8603E
:10256000FB68002B01D0FB6827E0FFF7BBFBF8609E
:10257000FB68002B01D0FB681FE000F04FFAF86009
:10258000FB68002B01D0FB6817E000F0EDFAF86063
:10259000FB68002B01D0FB680FE00B48FFF784FFBE
:1025A000084B1B78FF2208491846FFF7B7FFFF22A8
:1025B00005492020FFF7B2FF002318461037BD461B
:1025C00080BD00BFA80100241400002480B584B0A1
:1025D00000AF78607B6803F00103002B09D0384B13
:1025E0001B78002B03D037490020FFF7A9FE0023FA
:1025F00062E07B6803F01003002B09D0304B1B789E
:10260000002B03D030490020FFF79AFE002353E04F
:102610007B6803F00403002B09D0294B1B78002BA7
:1026200003D02A490020FFF78BFE002344E07B689B
:1026300003F04003002B09D0214B1B78002B03D063
:1026400023490020FFF77CFE002335E07A68214B08
:102650001340002B09D01A4B1B78002B03D01E49C6
:102660000020FFF76DFE002326E00120FFF74EFC5F
:10267000F860FB68002B01D100231DE07B6803F4A8
:102680008073002B11D0154B5B7C04211846FEF79C
:1026900085FF0246FB681A61FB681B69002B07D1A6
:1026A000F868FFF7D8FC002306E0FB6800221A61F7
:1026B000FB687A689A61FB6818461037BD4680BD92
:1026C0000C000024E0B8000838B9000890B90008F0
:1026D000E8B90008AAFEFFFF44BA0008A8010024D8
:1026E00080B584B000AF786039607B68002B01D181
:1026F000002313E07B681B69002B01D100230DE050
:102700007B681B6907F10C013A681846FEF786FFE3
:102710000346012B01D1FB6800E000231846103767
:10272000BD4680BD80B584B000AF786039600023BD
:10273000FB607B68002B03D07B685B78012B01D0AA
:1027400000230DE07B68DB6807F10C013A6818464E
:10275000FEF764FF0346012B01D0002300E0FB6875
:1027600018461037BD4680BDF0B58FB008AFF86091
:10277000B9607A603B60BB68002B09D1664B1B785F
:10278000002B00F0C08065490020FFF7D9FDBAE0BA
:102790007B68002B0FD1604B1B78002B00F0B580BD
:1027A000FB89C3F30413DBB21A46FB685C490020C3
:1027B000FFF7C6FDA9E07B681B687B61564B1B7960
:1027C000002B37D0FB7BC3F34403DBB29C46FB8971
:1027D000C3F30413DBB29E46FB68C3F38533DBB25D
:1027E00019467B7BC3F30503DBB21846FB7BC3F3BF
:1027F0008113DBB21C463B7B1D46BB685B891E46D2
:102800007B691B687A681279FF2A02D07A6812798C
:1028100003E0FA89C2F30412D2B206920593049639
:102820000395029401900091734662463D4904204D
:10283000FFF786FDFA68BB68DA60FB7BC3F34403ED
:10284000DBB21A46384B1B789A422DD13B7B03F002
:102850000803002B08D0304B5B78002B46D033495F
:102860000120FFF76DFD41E03B7B03F00103002BEE
:102870000CD0294B5B78002B03D02D490120FFF7AA
:102880005FFD3B7B23F00103DBB23B733B7B03F03B
:102890000403002B08D0204B5B78002B28D025495F
:1028A0000120FFF74DFD23E0BB685B897B827B69DC
:1028B0001B8A3B823B8A002B03D07A8A3B8A9A424E
:1028C00018D87B69DB68B968786898470346002B9D
:1028D00012D17B695B695A1C7B695A617B691A6BEF
:1028E0007B8A1A447B691A63002311E000BF04E06D
:1028F00000BF02E000BF00E000BF7B69DB695A1C3B
:102900007B69DA6102E000BF00E000BF6FF00903FD
:1029100018461C37BD46F0BD0C0000245CBA000808
:1029200084BA0008A4BA0008A8010024E8BA000884
:1029300048BB0008B0BB000880B586B000AFF860A7
:10294000B9607A60FB68002B06D0BB68002B03D00F
:10295000FB685B78012B09D0114B1B78002B03D04F
:1029600010490020FFF7ECFC002315E0FB685B89B1
:10297000C3F30413DBB2184601F09EF80246F86870
:102980007B68B9688068FFF7EFFE78617B69002B90
:102990000CBF01230023DBB218461837BD4680BDAB
:1029A0000C00002414BC000880B483B000AF786031
:1029B000184BDB7C1A467B68934201D9002322E046
:1029C000154B1A687B68DB0013441B78012B06D17A
:1029D000114B1A687B68DB0013445B6813E00E4BF5
:1029E0001A680C4BDB7C0133DB0013441B78012B92
:1029F00008D1094B1A68074BDB7C0133DB00134419
:102A00005B6800E0002318460C37BD465DF8047B88
:102A1000704700BFA8010024C801002480B500AFA2
:102A2000094BDB7C023308211846FEF791FD034673
:102A3000064A1360054B1B68002B02D14FF0FF3391
:102A400000E00023184680BDA8010024C80100242E
:102A500080B582B000AF786039607B68002B02D10E
:102A60006FF0010315E03B6804211846FEF796FD60
:102A700002467B681A617B681B69002B02D14FF00C
:102A8000FF3306E07B689B6943F480527B689A6160
:102A9000002318460837BD4680BD000080B582B0CF
:102AA00000AF78600B46FB707B68002B02D16FF0A3
:102AB000010348E0FB78FF2B04D1254BDB7C01337D
:102AC000FB7012E0224BDB7CFA789A420DD9214B45
:102AD0001B78002B06D0FA781D4BDB7C1E490020AA
:102AE000FFF72EFC6FF001032DE01C4B1A68FB78FA
:102AF000DB0013441B78002B0CD0164B1B78002BEB
:102B000005D0FB781A4616490020FFF719FC6FF034
:102B1000030318E00F4B9B78002B05D0FB787A68F5
:102B200010490220FFF70CFC0C4B1A68FB78DB0005
:102B300013447A685A60094B1A68FB78DB00134427
:102B400001221A70002318460837BD4680BD00BF19
:102B5000A80100240C00002488BD0008C80100243E
:102B6000F4BD000810BE000880B582B000AF00239D
:102B70007B601CE0124A7B6852F82330002B13D193
:102B8000104B9B7C08211846FEF708FD02460C49B5
:102B90007B6841F823200A4A7B6852F82330002BD7
:102BA00002D14FF0FF3306E07B6801337B607B6826
:102BB000002BDFDD002318460837BD4680BD00BF6F
:102BC000CC010024A801002480B582B000AF786059
:102BD000094B1B684FF0FF3279681846FEF71EFD5F
:102BE0000346012B02D06FF0020300E000231846D9
:102BF0000837BD4680BD00BFCC01002480B588B039
:102C000000AFF860B9607A60FB68002B0BD17B687D
:102C1000002B5FD1314B5B78002B5BD0304901201A
:102C2000FFF78EFB56E0BB68002B15D17B68002BAD
:102C300007D12A4B5B78002B03D02A490120FFF7EC
:102C40007FFB7B68002B03D1F868FEF761FF42E051
:102C5000F868FEF723FF3EE0BB683B61FB687B61E1
:102C60000023BB617B68002B0BD11F4ABB6952F864
:102C7000233007F1100100221846FEF7AAFCF86184
:102C80000AE0194ABB6952F8233007F110017A684B
:102C90001846FEF7B2FCF861FB69012B1BD07B687C
:102CA000002B07D10D4B5B78002B03D00F4901207F
:102CB000FFF746FBBB685B6A5A1CBB685A627B68BD
:102CC000002B03D1F868FEF723FF04E0F868FEF755
:102CD000E5FE00E000BF2037BD4680BD0C000024AB
:102CE00030BE000858BE0008CC01002484BE000895
:102CF00080B582B000AF786039603B681B7B03F021
:102D00000403002B0FD0204B1B78002B03D01F494E
:102D10000020FFF715FB7B689B6A5A1C7B689A6250
:102D20006FF004032CE03B681B7B03F00803002BCF
:102D30000FD0154B1B78002B03D015490020FFF74F
:102D4000FFFA7B689B6A5A1C7B689A626FF00403E7
:102D500016E03B681B7B03F00203002B0FD00A4BED
:102D60001B78002B03D00B490020FFF7E9FA7B68A2
:102D70001B6A5A1C7B681A626FF0040300E0002390
:102D800018460837BD4680BD0C000024B8BE0008B8
:102D900018BF000870BF000880B584B000AFF860AD
:102DA000B9607A607B681B7B03F00103002B1AD0AB
:102DB0007B685B89032B0FD8144B1B78002B03D047
:102DC00013490020FFF7BCFABB681B6A5A1CBB689A
:102DD0001A626FF0650314E07B685B89043B9AB26A
:102DE0007B685A810CE0FB6803F04003002B07D09E
:102DF000064B5B78002B03D006490120FFF7A0FAB1
:102E0000002318461037BD4680BD00BF0C000024CB
:102E1000C4BF0008F0BF0008F0B591B006AF7860FD
:102E200007F114031846FFF7CFFE0346002B02D02C
:102E30006FF0020372E1BB693B613B69002B02D179
:102E40006FF002036AE1A34B1B79002B31D03B6981
:102E5000DB7BC3F34403DBB21E463B69DB89C3F370
:102E60000413DBB29C463B69DB68C3F38533DBB2FA
:102E70001A463B695B7BC3F30503DBB219463B692A
:102E8000DB7BC3F38113DBB218463B691B7B1C461B
:102E90003B695B891D467B691B6805930495039418
:102EA000029001910092634632468B490420FFF75D
:102EB00047FA7B699A6901329A617B695A6B3B696F
:102EC0005B8919467B690A445A633B69DB89C3F312
:102ED0000413DBB21A46814B1B789A423AD03B6905
:102EE000DB8903F4F8739BB2B3F5F87F32D03B690A
:102EF000DB89C3F30413DBB2184600F0DDFD386252
:102F00003B6A002B08D03B6A1A687B699A4209D158
:102F10007B699B7C002B05D13B691846FEF7F8FDC9
:102F20000023FBE03869396900233A6AC068FFF77B
:102F30001BFC0346002B0BD0664B5B78002B03D0A9
:102F400067490120FFF7FCF93B691846FEF7E0FDF1
:102F50000023E3E07B693A6911461846FFF7C8FE93
:102F60000346002B05D03B691846FEF7D1FD002330
:102F7000D4E03B69DB68C3F38533DBB21846FFF767
:102F800013FDF861FB69002B30D0FB699B6903F4EA
:102F90008073002B2AD0FB699B6979693A691846CE
:102FA000FFF7FAFE0346002B05DA3B691846FEF7E9
:102FB000AFFD0023B2E0FB691B6907F1100100229D
:102FC0001846FEF706FB0346012B0DD0414B1B783C
:102FD000002B03D043490020FFF7B2F93B691846A4
:102FE000FEF796FD002399E0002397E03B69DB683C
:102FF0003D491846FEF728FF78627B6A002B77D19F
:10300000FB69002B05D13B691846FEF781FD0023C3
:1030100084E0FB699B6979693A691846FFF7BCFE51
:103020000346002B05DA3B691846FEF771FD0023C5
:1030300074E03B69DB7BC3F38113DAB2FB7B62F3A1
:103040008713FB73254B1B7803F01F03DAB2FB7B5E
:1030500062F34503FB733B69DB7BC3F34403DAB2E2
:10306000FB8962F30813FB813B695B7BC3F30503B8
:10307000DAB2FB6862F39333FB603B69DB68C3F34E
:103080008533DAB27B7B62F305037B733B691B7B81
:103090003B733B69F968D868FEF7BEFF78627B6ACC
:1030A000002B0DD10B4B1B78002B03D00F490020B8
:1030B000FFF746F93B691846FEF72AFD00232DE08D
:1030C000FB691A697B6A1A61FB699A697B6A9A6172
:1030D0001EE000BF0C0000244CC00008A801002422
:1030E0008CC00008A4C0000800FFFF3FC0C000085B
:1030F0007B6A9B6979693A691846FFF74DFE03467A
:10310000002B05DA3B691846FEF702FD002305E0B7
:103110003B691946786A00F031FD002318462C37C8
:10312000BD46F0BD80B582B000AF78604FF0FF3093
:10313000FFF772FEFAE7000080B586B002AF786054
:103140003960002301933B68009300237A680C499F
:103150000C48FEF75BFBF860FB68002B0AD00A4BBB
:103160001B78002B04D0FA6808490020FFF7E8F824
:10317000FB6800E0002318461037BD4680BD00BF45
:10318000E0C00008253100080C000024E4C000085D
:1031900080B58EB000AFF860B9607A60FB70BB6834
:1031A0007B614FF08043BB610023FB6108233B62DE
:1031B00000237B620023BB620023FB6200233B638E
:1031C00000237B6307F114037A681946064804F06C
:1031D000D6FC0346002B02D06FF00A0300E0002368
:1031E00018463837BD4680BDD800002480B588B069
:1031F00000AF3B4620220021184607F0FBFA4FF0B3
:1032000080433B600323BB600123FB606FF060439E
:103210007B613B4619460F4804F010FC0D4804F052
:1032200083FC002201210B4804F070FE0A4B0B4A7C
:103230005A600B4B0B4A1A60094B064A9A60084BBE
:10324000054A5A60064800F03FFA00BF2037BD46E5
:1032500080BD00BFD8000024D001002491310008B7
:10326000D80100240CC1000880B592B002AF78608C
:1032700039600023FB6007F1100307F118024021B9
:10328000786804F0D7FC0346002B19D1B9697B6A32
:10329000D8B207F1100207F10C03009303460A4865
:1032A00000F016F8FB68002B0AD0FB68002B07D053
:1032B000064B4FF080521A60BFF34F8FBFF36F8FF2
:1032C00000BF4037BD4680BDD801002404ED00E0BA
:1032D00090B587B000AFF860B9607A60FB70BA6AE9
:1032E0008949B86800F0D8FA78617B69002B1DD154
:1032F000BB689B0C03F00103002B0FD1B96AB868BF
:1033000000F04AFA78617B69002B0FD1FB681B6AD9
:103310005A1CFB681A624FF0FF33F1E0FB68DB6A6E
:103320005A1CFB68DA626FF00103E9E00023FB74CA
:10333000BB689B0C03F00103002B02D0012B7AD059
:10334000D7E0FB78052B09D8FB68DB6A5A1CFB68C1
:10335000DA62B96A786900F0F1F9D0E07B69DB687C
:10336000002B05D0FB68DB6A5A1CFB68DA621BE0A5
:10337000BB6A002B04D00020FEF7FCFA034603E0F2
:103380000020FEF729FB03467A69D3607B69DB687E
:10339000002B09D1FB68DB6A5A1CFB68DA62B96A48
:1033A000786900F0CBF9AAE07B69DB680C337A68B6
:1033B00012681A607B69DB68DA687B69DC68104632
:1033C000FFF765F80346E3607B69DB680A337A68D8
:1033D0000432128892B21A807B69DB685A897B6951
:1033E000DC681046FFF72CF8034663817B69DB68D5
:1033F0005B8940F2FA72934208D87B69DB685B898B
:103400001C46FEF709FC03469C4209D9FB681B6A6F
:103410005A1CFB681A62B96A786900F08FF96EE08D
:103420007B6900221A800623FB74BB689B0ADBB20F
:103430005A1C7B695A60BB689B0ADAB27B695B687D
:10344000013B9A4209D0B96A786900F077F9FB68C4
:10345000DB6A5A1CFB68DA6251E07B695B685A1EC2
:103460007B695A607B691B881A46FB781A44FB7C8F
:10347000D31A7A69D2685289934209DDFB68DB6A04
:103480005A1CFB68DA62B96A786900F057F936E0CD
:103490007B69DA687B691B881033D018FB7C7A68FB
:1034A000D118FA78FB7CD31A1A4607F03EFA7B69EA
:1034B0001A88FB7899B2FB7C9BB2CB1A9BB213445F
:1034C0009AB27B691A807B691A887B69DB685B89A1
:1034D0009A4213D17B69DB68BA6AF9681846FFF72C
:1034E0008DFB7B690022DA60B96A786900F026F901
:1034F00005E0B96A786900F021F900E000BF002317
:1035000018461C37BD4690BDFF03F81F90B58FB01D
:1035100000AF786039607B681B683B633B6B5B681E
:10352000FB62FB6A1B68591CFA6A1160BB623B684C
:103530005B8940F2FA72934202D96FF00903BFE04F
:103540007B681B79FF2B02D07B681B7904E03B680A
:10355000DB89C3F30413DBB287F827303B68DB7BDE
:10356000C3F34403DBB21A0697F82730DB0403F4F5
:1035700078031A43BB6AC3F309031A433B685B89A8
:103580000533DB089B0203F47F3313433B620223C2
:10359000FB773B685A89FB7F9BB29A4203D83B6812
:1035A0005B89DBB200E0FB7FBB773B68DB681846DA
:1035B000FEF754FF03467B613B685B891846FEF7C4
:1035C00029FF03467B827B69BB6007F10803043354
:1035D0007A8A1A8007F1080306333A6802F110016B
:1035E000BA7F184607F0A1F9BB7FFB86FB6A5B68D0
:1035F000BB613B6B9868BB7F0633DBB207F1080207
:10360000BC69396AA0470346002B50D03B6BDB698D
:103610005A1C3B6BDA616FF00A0351E03B685B892F
:103620001A46FB8ED31A082BA8BF0823BB773B682A
:10363000DB7BC3F34403DBB21A0697F82730DB04C5
:1036400003F478031A43BB6AC3F309031A433B68C4
:103650005B891946FB8EC91ABB7FCB1A0733002B37
:1036600000DA0733DB109B0203F47F33134343F488
:1036700080233B62BB7F9AB2FB8E1344FB863B6B7D
:1036800098683B6803F11002F98EBB7FCB1A1A448D
:10369000BB7FBC69396AA0470346002B07D03B6B50
:1036A000DB695A1C3B6BDA616FF00A0308E03B6888
:1036B0005B89FA8E9A42B1D33868FEF729FA002363
:1036C00018463C37BD4690BD80B584B000AF7860E9
:1036D0007B68002B07D07B681B68002B03D07B68BE
:1036E0005B68002B02D16FF0010321E07B685B680F
:1036F000FB60FB685B68002B02D16FF0010317E0F1
:103700007B681B8A002B05D07B681B8A40F2FA720B
:10371000934203D97B6840F2FA721A82FB68002256
:103720001A607B68044ADA607868FEF7BDFE0346DB
:1037300018461037BD4680BD0D35000880B582B0F3
:1037400000AF786039607B68DB68002B0DD03B6888
:10375000002B05D17B68DB681846FEF7D9F904E039
:103760007B68DB681846FEF799F97B680022DA600F
:103770007B6800221A807B6800229A607B680022A6
:103780005A617B6800225A607B6800221A74002309
:1037900018460837BD4680BD80B584B000AF78605C
:1037A00039603B68002B03D0FEF75BF8034602E06C
:1037B000FEF750F80346BB600023FB6061E035492B
:1037C000FA6813465B001344DB000B4410331B788C
:1037D000012B18D12F49FA6813465B001344DB0014
:1037E0000B4414331B68BA68D31AB3F57A7F0AD92D
:1037F000FA6813465B001344DB00264A1344396819
:103800001846FFF79BFF2349FA6813465B001344F1
:10381000DB000B4410331B78002B2FD11D49FA68B5
:1038200013465B001344DB000B44103301221A7073
:103830001849FA6813465B001344DB000B44083355
:103840007A681A601349FA6813465B001344DB0078
:103850000B44043300221A600E49FA6813465B00D9
:103860001344DB000B441433BA681A60FA68134639
:103870005B001344DB00074A134406E0FB68013396
:10388000FB60FB68042B9ADD002318461037BD4609
:1038900080BD00BF1802002480B586B000AFF8607C
:1038A000B9607A6000237B6137E020497A6913466A
:1038B0005B001344DB000B4410331B78012B29D130
:1038C0001A497A6913465B001344DB000B44083342
:1038D0001A68FB685A40BB681340002B1AD17B68FA
:1038E000002B03D0FDF7BDFF024602E0FDF7B2FF5B
:1038F00002460E4879690B465B000B44DB0003442B
:1039000014331A607A6913465B001344DB00074ADC
:10391000134406E07B6901337B617B69042BC4DDC2
:10392000002318461837BD4680BD00BF180200248A
:1039300080B582B000AF786039603B68DB89C3F343
:103940000413DBB21A46094B1B789A4204D038683C
:10395000FEF7DEF8002305E0002205493868FFF78E
:103960004DF9002318460837BD4680BDA801002444
:103970001400002480B586B004AF3A601A460346AE
:10398000FB710B46BB7113467B71FB79202B03D176
:103990000023BB710023FB71FB791F2B02D9FB793C
:1039A000FF2B05D13B68002B02D0BB79052B1BD91F
:1039B000134B1B78002B14D0F879BA793B68002B95
:1039C00002D03B681B6800E00E4B797903910293AB
:1039D0003B680193009203460B4A0C490020FEF716
:1039E000AFFC6FF0010306E07B79B979F8793A68AA
:1039F00000F078F8034618460837BD4680BD00BF82
:103A00000C00002488C10008C8C200088CC100084E
:103A100080B487B000AF0346FB710B46BB71134601
:103A20007B7100237B610023FB74224B1B68FB60CE
:103A300036E0FB681B7AFA799A4207D1FB685B7A19
:103A4000BA799A4202D1FB687B612CE07B79002B2A
:103A500023D1FB685B7AC3F10503012202FA03F369
:103A6000DBB2013BFB72FB7ADB43BB72FB681A7A69
:103A7000BB7A13407B72FA79BB7A13403B727A7A35
:103A80003B7A9A4209D1FB685B7AFA7C9A4204D865
:103A9000FB687B61FB685B7AFB74FB68DB68FB603F
:103AA000FB68002BC5D17B6918461C37BD465DF805
:103AB000047B70479002002480B584B000AF0346B9
:103AC000FB71FB79002205211846FFF7A1FFF86082
:103AD000FB68002B01D0FB6800E00023184610377C
:103AE000BD4680BD80B584B000AF3A601A4603463B
:103AF000FB710B46BB7113467B71B979FB790122CF
:103B00001846FFF785FFF860FB68002B22D11020D4
:103B1000FDF712FDF860FB68002B02D14FF0FF3378
:103B200025E0FB680022DA60134B1B68002B03D1F1
:103B3000114AFB6813600DE00F4B1B68BB6002E08D
:103B4000BB68DB68BB60BB68DB68002BF8D1BB6877
:103B5000FA68DA60FB68FA791A72FB68BA795A7205
:103B6000FB683A681A60FB687A791A710023184674
:103B70001037BD4680BD00BF9002002480B582B0E2
:103B800000AF786039607B6839681846FEF75CF8EA
:103B90000346002B0BDA164B1B78002B03D015497C
:103BA0000020FEF7CDFB3868FDF7B2FF1DE07B6813
:103BB0001B69002B19D07B681B69391D0022184630
:103BC000FDF707FD0346012B0CD0094B5B78002B5A
:103BD00003D009490120FEF7B3FB7B681846FEF7C6
:103BE0003AFA02E07B6800221A610837BD4680BDC0
:103BF0000C0000240CC200082CC2000880B483B062
:103C000000AF78607B6803F108027B685A607B68CC
:103C10004FF0FF329A607B6803F108027B68DA603C
:103C20007B6803F108027B681A617B6800221A60D6
:103C300000BF0C37BD465DF8047B704780B483B08D
:103C400000AF78607B6800221A6100BF0C37BD4668
:103C50005DF8047B704780B485B000AF7860396050
:103C60003B681B68BB60BB68B3F1FF3F03D17B6857
:103C70001B69FB600CE07B680833FB6002E0FB68BB
:103C80005B68FB60FB685B681B68BA689A42F6D2A7
:103C9000FB685A683B685A603B685B683A689A60A0
:103CA0003B68FA689A60FB683A685A603B687A68D1
:103CB0001A617B681B685A1C7B681A6000BF143746
:103CC000BD465DF8047B704780B485B000AF786076
:103CD0007B681B69FB607B685B687A6892689A60A6
:103CE0007B689B687A6852685A60FB685B687A6890
:103CF0009A4203D17B689A68FB685A607B6800220D
:103D00001A61FB681B685A1EFB681A60FB681B6817
:103D100018461437BD465DF8047B704780B586B001
:103D200000AF7860396001237B617B683B613B6950
:103D3000002B0DD14FF0500372B683F31188BFF3FF
:103D40006F8FBFF34F8F62B6FB6000BF00BFFDE710
:103D50003B69002B5DD03B69DB6B002B59D03B6985
:103D60001A6C3B69DB6B0021A3FB0223002B00D004
:103D700001210B46002B4CD102F01CFF3B691A6855
:103D80003B69DB6B3969096C01FB03F31A443B693E
:103D90009A603B6900229A633B691A683B695A60E2
:103DA0003B691A683B69DB6B013B3969096C01FBB4
:103DB00003F31A443B69DA603B69FF2283F844202D
:103DC0003B69FF2283F845203B68002B14D13B69F7
:103DD0001B69002B1AD03B691033184601F0D4FD43
:103DE0000346002B12D0174B4FF080521A60BFF3DE
:103DF0004F8FBFF36F8F09E03B6910331846FFF711
:103E0000FDFE3B6924331846FFF7F8FE02F008FF79
:103E100001E000237B617B69002B0DD14FF0500343
:103E200072B683F31188BFF36F8FBFF34F8F62B603
:103E3000BB6000BF00BFFDE77B6918461837BD4671
:103E400080BD00BF04ED00E080B58CB002AFF8602B
:103E5000B9607A603B6000237B623B68002B0DD128
:103E60004FF0500372B683F31188BFF36F8FBFF327
:103E70004F8F62B63B6200BF00BFFDE7FB68002BBF
:103E800033D03B68002B30D07B68002B02D0BB685E
:103E9000002B2AD07B68002B02D1BB68002B24D1D9
:103EA00050237B617B69502B0DD04FF0500372B6CD
:103EB00083F31188BFF36F8FBFF34F8F62B6FB613F
:103EC00000BF00BFFDE77B693B687B627B6A012224
:103ED00083F8462097F830207B6A009313467A686F
:103EE000B968F86800F06CF810E07B6A002B0DD11F
:103EF0004FF0500372B683F31188BFF36F8FBFF397
:103F00004F8F62B6BB6100BF00BFFDE77B6A1846FA
:103F10002837BD4680BD80B58AB002AFF860B96071
:103F20001346FB710023FB61FB68002B32D000219C
:103F3000BA68FB68A3FB0223002B00D001210B46CB
:103F4000002B27D1FB68BA6802FB03F313F1510F72
:103F500020D8FB68BA6802FB03F3BB61BB6950332E
:103F6000184602F05BFFF861FB69002B23D0FB6968
:103F70007B617B6950337B61FB69002283F84620BB
:103F8000FA79FB69009313467A69B968F86800F01A
:103F900017F810E0FB69002B0DD14FF0500372B6FB
:103FA00083F31188BFF36F8FBFF34F8F62B63B610E
:103FB00000BF00BFFDE7FB6918462037BD4680BD46
:103FC00080B584B000AFF860B9607A60FB70BB6800
:103FD000002B03D1BB69BA691A6002E0BB697A6839
:103FE0001A60BB69FA68DA63BB69BA681A640121AE
:103FF000B869FFF793FEBB69FA7883F84C2000BFDD
:104000001037BD4680BD000080B58EB000AFF860AF
:10401000B9607A603B6000237B63FB683B633B6B6A
:10402000002B0DD14FF0500372B683F31188BFF30C
:104030006F8FBFF34F8F62B6BB6200BF00BFFDE75B
:10404000BB68002B03D13B6B1B6C002B01D1012300
:1040500000E00023002B0DD14FF0500372B683F324
:104060001188BFF36F8FBFF34F8F62B67B6200BFC3
:1040700000BFFDE73B68022B03D13B6BDB6B012BE1
:1040800001D1012300E00023002B0DD14FF050039C
:1040900072B683F31188BFF36F8FBFF34F8F62B691
:1040A0003B6200BF00BFFDE701F09EFE0346002B10
:1040B00002D17B68002B01D1012300E00023002BFB
:1040C0000DD14FF0500372B683F31188BFF36F8F99
:1040D000BFF34F8F62B6FB6100BF00BFFDE702F088
:1040E00069FD3B6B9A6B3B6BDB6B9A4202D33B687F
:1040F000022B29D13A68B968386B00F03EFCF862AF
:104100003B6B5B6A002B10D03B6B2433184601F0ED
:104110003BFC0346002B13D03F4B4FF080521A60FC
:10412000BFF34F8FBFF36F8F0AE0FB6A002B07D0FE
:10413000394B4FF080521A60BFF34F8FBFF36F8F30
:1041400002F06EFD012363E07B68002B03D102F0D7
:1041500067FD00235CE07B6B002B06D107F11403A5
:10416000184601F0EDFC01237B6302F059FD01F0DC
:10417000D9F802F01FFD3B6B93F844305BB2B3F10A
:10418000FF3F03D13B6B002283F844203B6B93F845
:1041900045305BB2B3F1FF3F03D13B6B002283F8A4
:1041A000452002F03DFD3A1D07F114031146184663
:1041B00001F0DCFC0346002B24D1386B00F0D5FC69
:1041C0000346002B18D03B6B10337A681146184613
:1041D00001F06AFB386B00F060FC01F0B1F80346B7
:1041E000002B7FF47CAF0C4B4FF080521A60BFF372
:1041F0004F8FBFF36F8F72E7386B00F04EFC01F00A
:104200009FF86CE7386B00F048FC01F099F8002348
:1042100018463837BD4680BD04ED00E080B592B049
:1042200000AFF860B9607A603B60FB683B643B6C50
:10423000002B0DD14FF0500372B683F31188BFF3FA
:104240006F8FBFF34F8F62B6FB6200BF00BFFDE709
:10425000BB68002B03D13B6C1B6C002B01D10123ED
:1042600000E00023002B0DD14FF0500372B683F312
:104270001188BFF36F8FBFF34F8F62B6BB6200BF71
:1042800000BFFDE73B68022B03D13B6CDB6B012BCE
:1042900001D1012300E00023002B0DD14FF050038A
:1042A00072B683F31188BFF36F8FBFF34F8F62B67F
:1042B0007B6200BF00BFFDE702F06AFDEFF31182F1
:1042C0004FF0500372B683F31188BFF36F8FBFF3C3
:1042D0004F8F62B63A62FB613B6AFB633B6C9A6B41
:1042E0003B6CDB6B9A4202D33B68022B49D13B6C9F
:1042F00093F8453087F83B303B6C9B6B7B633A68A7
:10430000B968386C00F039FB97F93B30B3F1FF3FE7
:1043100012D13B6C5B6A002B30D03B6C24331846C7
:1043200001F032FB0346002B28D07B68002B25D000
:104330007B6801221A6021E001F02EF9386397F9B9
:104340003B303A6B9A4219D997F93B307F2B0DD10C
:104350004FF0500372B683F31188BFF36F8FBFF332
:104360004F8F62B6BB6100BF00BFFDE797F83B30DF
:104370000133DBB25AB23B6C83F8452001237B64E6
:1043800001E000237B64FB6B7B617B6983F3118815
:1043900000BF7B6C18464837BD4680BD80B58CB0E9
:1043A00000AFF860B9607A600023FB62FB68BB6213
:1043B000BB6A002B0DD14FF0500372B683F3118806
:1043C000BFF36F8FBFF34F8F62B63B6200BF00BF7A
:1043D000FDE7BB68002B03D1BB6A1B6C002B01D12E
:1043E000012300E00023002B0DD14FF0500372B6E3
:1043F00083F31188BFF36F8FBFF34F8F62B6FB61FA
:1044000000BF00BFFDE701F0EFFC0346002B02D127
:104410007B68002B01D1012300E00023002B0DD18C
:104420004FF0500372B683F31188BFF36F8FBFF361
:104430004F8F62B6BB6100BF00BFFDE702F0BAFB61
:10444000BB6A9B6B7B627B6A002B1FD0B968B86A22
:1044500000F0FDFA7B6A5A1EBB6A9A63BB6A1B694D
:10446000002B0FD0BB6A1033184601F08DFA0346BB
:10447000002B07D03C4B4FF080521A60BFF34F8F98
:10448000BFF36F8F02F0CCFB012369E07B68002B48
:1044900003D102F0C5FB002362E0FB6A002B06D1CA
:1044A00007F11003184601F04BFB0123FB6202F0F9
:1044B000B7FB00F037FF02F07DFBBB6A93F8443096
:1044C0005BB2B3F1FF3F03D1BB6A002283F8442003
:1044D000BB6A93F845305BB2B3F1FF3F03D1BB6ACF
:1044E000002283F8452002F09BFB3A1D07F11003E0
:1044F0001146184601F03AFB0346002B23D1B86A57
:1045000000F01DFB0346002B17D0BB6A24337A68EA
:104510001146184601F0C8F9B86A00F0BEFA00F07A
:104520000FFF0346002B89D10F4B4FF080521A60CA
:10453000BFF34F8FBFF36F8F80E7B86A00F0ADFA1B
:1045400000F0FEFE7AE7B86A00F0A7FA00F0F8FE85
:10455000B86A00F0F4FA0346002B3FF46FAF002373
:1045600018463037BD4680BD04ED00E080B58CB004
:1045700000AF786039600023FB627B687B620023B8
:10458000BB627B6A002B0DD14FF0500372B683F3F0
:104590001188BFF36F8FBFF34F8F62B6BB6100BF4F
:1045A00000BFFDE77B6A1B6C002B0DD04FF0500362
:1045B00072B683F31188BFF36F8FBFF34F8F62B66C
:1045C0007B6100BF00BFFDE701F00EFC0346002B3E
:1045D00002D13B68002B01D1012300E00023002B16
:1045E0000DD14FF0500372B683F31188BFF36F8F74
:1045F000BFF34F8F62B63B6100BF00BFFDE702F023
:10460000D9FA7B6A9B6B3B623B6A002B24D03B6AE6
:104610005A1E7B6A9A637B6A1B68002B04D101F0E7
:104620000FFE02467B6A9A607B6A1B69002B0FD0E3
:104630007B6A1033184601F0A7F90346002B07D018
:104640004C4B4FF080521A60BFF34F8FBFF36F8F08
:1046500002F0E6FA012389E03B68002B03D102F067
:10466000DFFA002382E0FB6A002B06D107F1080382
:10467000184601F065FA0123FB6202F0D1FA00F05E
:1046800051FE02F097FA7B6A93F844305BB2B3F1C3
:10469000FF3F03D17B6A002283F844207B6A93F8B2
:1046A00045305BB2B3F1FF3F03D17B6A002283F850
:1046B000452002F0B5FA3A4607F1080311461846BC
:1046C00001F054FA0346002B32D1786A00F037FA31
:1046D0000346002B26D07B6A1B68002B09D102F011
:1046E00069FA7B6A9B68184601F09CFBB86202F08D
:1046F00097FA7B6A24333A681146184601F0D4F8D9
:10470000786A00F0CAF900F01BFE0346002B7FF424
:1047100076AF184B4FF080521A60BFF34F8FBFF344
:104720006F8F6CE7786A00F0B8F900F009FE66E771
:10473000786A00F0B2F900F003FE786A00F0FFF941
:104740000346002B3FF45BAFBB6A002B0DD002F099
:1047500031FA786A00F0F9F8F8617B6A9B68F969C8
:10476000184601F0ABFC02F05BFA00231846303724
:10477000BD4680BD04ED00E080B590B000AFF860AC
:10478000B9607A60FB68BB63BB6B002B0DD14FF047
:10479000500372B683F31188BFF36F8FBFF34F8F4F
:1047A00062B67B6200BF00BFFDE7BB68002B03D190
:1047B000BB6B1B6C002B01D1012300E00023002BFD
:1047C0000DD14FF0500372B683F31188BFF36F8F92
:1047D000BFF34F8F62B63B6200BF00BFFDE702F040
:1047E000D7FAEFF311824FF0500372B683F31188BA
:1047F000BFF36F8FBFF34F8F62B6FA61BB61FB6986
:104800007B63BB6B9B6B3B633B6B002B49D0BB6BF0
:1048100093F8443087F82F30B968B86B00F017F977
:104820003B6B5A1EBB6B9A6397F92F30B3F1FF3F76
:1048300012D1BB6B1B69002B30D0BB6B10331846F9
:1048400001F0A2F80346002B28D07B68002B25D06E
:104850007B6801221A6021E000F09EFEB86297F9A1
:104860002F30BA6A9A4219D997F92F307F2B0DD180
:104870004FF0500372B683F31188BFF36F8FBFF30D
:104880004F8F62B67B6100BF00BFFDE797F82F3006
:104890000133DBB25AB2BB6B83F844200123FB63C4
:1048A00001E00023FB637B6B3B613B6983F3118871
:1048B00000BFFB6B18464037BD4680BD80B584B055
:1048C00000AF78607B68002B0DD14FF0500372B6BB
:1048D00083F31188BFF36F8FBFF34F8F62B6BB6056
:1048E00000BF00BFFDE702F065F97B689B6BFB60D2
:1048F00002F096F9FB6818461037BD4680BD80B5BA
:1049000084B000AF78607B68FB60FB68002B0DD142
:104910004FF0500372B683F31188BFF36F8FBFF36C
:104920004F8F62B6BB6000BF00BFFDE7F86800F0C4
:1049300087F9FB6893F84630002B02D1F86802F043
:10494000ABFB00BF1037BD4680BD80B485B000AF63
:1049500078607B685B6A002B06D07B681B6B1B68EA
:10496000C3F10703FB6001E00023FB60FB6818460E
:104970001437BD465DF8047B704780B586B000AF44
:10498000F860B9607A6000237B61FB689B6B3B61D8
:10499000FB681B6C002B0DD1FB681B68002B4DD1F5
:1049A000FB689B68184601F0DDFA7861FB6800221D
:1049B0009A6043E07B68002B19D1FB685868FB685C
:1049C0001B6C1A46B96805F0B0FFFB685A68FB68B3
:1049D0001B6C1A44FB685A60FB685A68FB689B684A
:1049E0009A422BD3FB681A68FB685A6026E0FB6882
:1049F000D868FB681B6C1A46B96805F096FFFB681F
:104A0000DA68FB681B6C5B421A44FB68DA60FB687F
:104A1000DA68FB681B689A4207D2FB689A68FB68F1
:104A20001B6C5B421A44FB68DA607B68022B05D181
:104A30003B69002B02D03B69013B3B613B695A1C3F
:104A4000FB689A637B6918461837BD4680BD80B500
:104A500082B000AF786039607B681B6C002B18D087
:104A60007B68DA687B681B6C1A447B68DA607B6859
:104A7000DA687B689B689A4203D37B681A687B6814
:104A8000DA607B68D9687B681B6C1A46386805F069
:104A90004CFF00BF0837BD4680BD80B584B000AF75
:104AA000786002F087F87B6893F84530FB7311E07B
:104AB0007B685B6A002B12D07B682433184600F0B9
:104AC00063FF0346002B01D001F0B4F8FB7B013BF0
:104AD000DBB2FB7397F90F30002BE9DC00E000BF7D
:104AE0007B68FF2283F8452002F09AF802F062F812
:104AF0007B6893F84430BB7311E07B681B69002B23
:104B000012D07B681033184600F03EFF0346002B9E
:104B100001D001F08FF8BB7B013BDBB2BB7397F98F
:104B20000E30002BE9DC00E000BF7B68FF2283F839
:104B3000442002F075F800BF1037BD4680BD80B537
:104B400084B000AF786002F035F87B689B6B002B77
:104B500002D10123FB6001E00023FB6002F060F85A
:104B6000FB6818461037BD4680BD80B584B000AFE5
:104B7000786002F01FF87B689A6B7B68DB6B9A4267
:104B800002D10123FB6001E00023FB6002F048F842
:104B9000FB6818461037BD4680BD000080B487B062
:104BA00000AF7860396000233B617B68002B0DD13A
:104BB0004FF0500372B683F31188BFF36F8FBFF3CA
:104BC0004F8F62B6FB6000BF00BFFDE73B68002B64
:104BD00024D000237B611EE0184A7B69DB0013446C
:104BE0005B687A689A4205D17B69DB00134A1344FB
:104BF0003B6113E03B69002B0AD1104A7B6952F8F4
:104C00003330002B04D17B69DB000C4A13443B6139
:104C10007B6901337B617B69072BDDD93B69002B05
:104C200005D03B693A681A603B697A685A6000BFF0
:104C30001C37BD465DF8047B704700BF940200241A
:104C400080B485B000AF78607B68002B0DD14FF049
:104C5000500372B683F31188BFF36F8FBFF34F8F8A
:104C600062B6BB6000BF00BFFDE70023FB6016E03B
:104C7000104AFB68DB0013445B687A689A420BD1E8
:104C80000C4AFB68002142F833100A4AFB68DB003B
:104C9000134400225A6006E0FB680133FB60FB68A6
:104CA000072BE5D900BF00BF1437BD465DF8047B74
:104CB000704700BF9402002480B586B000AFF86052
:104CC000B9607A60FB687B6101F074FF7B6993F8DF
:104CD00044305BB2B3F1FF3F03D17B69002283F81C
:104CE00044207B6993F845305BB2B3F1FF3F03D1B9
:104CF0007B69002283F8452001F092FF7B699B6B62
:104D0000002B06D17B6924337A68B968184600F015
:104D1000F3FD7869FFF7C1FE00BF1837BD4680BDBF
:104D200080B58EB004AFF860B9607A603B607B6B91
:104D3000002B0DD14FF0500372B683F31188BFF3EF
:104D40006F8FBFF34F8F62B63B6200BF00BFFDE7BE
:104D5000BB6B002B0DD14FF0500372B683F311885B
:104D6000BFF36F8FBFF34F8F62B6FB6100BF00BF11
:104D7000FDE75C237B617B695C2B0DD04FF050031A
:104D800072B683F31188BFF36F8FBFF34F8F62B694
:104D9000BB6100BF00BFFDE77B69BB6B002B1FD071
:104DA0007B6B002B1CD0BB6B7B625C220021786A82
:104DB00005F020FD7B6A7A6B1A637B6A022283F816
:104DC0005920002303937B6A0293FB6B01933B6B97
:104DD00000933B687A68B968F86800F08FF801E0E2
:104DE00000237B627B6A18462837BD4680BD80B5AC
:104DF0008AB004AFF860B9607A603B6000233B6121
:104E000007F110030393BB6A02937B6A01933B6A29
:104E100000933B687A68B968F868FFF781FF7861AA
:104E20007B69002B02D0786900F0FCF83B691846DA
:104E30001837BD4680BD80B58AB004AFF860B96050
:104E40007A603B607B689B00184601F0E7FF3861A1
:104E50003B69002B13D05C2001F0E0FF78617B6997
:104E6000002B08D05C220021786905F0C3FC7B6927
:104E70003A691A6305E0386902F00EF901E000238F
:104E80007B617B69002B11D07B69002283F859205C
:104E9000002303937B6902937B6A01933B6A00932F
:104EA0003B687A68B968F86800F028F87B691846AA
:104EB0001837BD4680BD80B588B002AFF860B960D4
:104EC0007A603B607B6A01933B6A00933B687A6837
:104ED000B968F868FFF7AFFF38613B69002B05D070
:104EE000386900F09FF801237B6102E04FF0FF3347
:104EF0007B617B6918461837BD4680BD80B588B098
:104F000000AFF860B9607A603B603B6B186B7B6800
:104F10009B001A46A52105F06DFC3B6B1A6B796866
:104F20006FF040430B449B001344BB61BB6923F00B
:104F30000703BB61BB6903F00703002B0DD04FF0E3
:104F4000500372B683F31188BFF36F8FBFF34F8F97
:104F500062B67B6100BF00BFFDE7BB68002B1ED0BF
:104F60000023FB6112E0BA68FB69134419783A6BBD
:104F7000FB69134434330A461A70BA68FB69134458
:104F80001B78002B06D0FB690133FB61FB690F2BFB
:104F9000E9D900E000BF3B6B002283F84320BB6AE5
:104FA000062B0DD94FF0500372B683F31188BFF36F
:104FB0006F8FBFF34F8F62B63B6100BF00BFFDE74D
:104FC000BB6A062B01D90623BB623B6BBA6ADA6265
:104FD0003B6BBA6ADA643B6B04331846FEF72EFE6D
:104FE0003B6B18331846FEF729FE3B6B3A6B1A6190
:104FF000BB6AC3F107023B6B9A613B6B3A6B5A6227
:105000003A68F968B86901F073FC02463B6B1A60B4
:10501000FB6A002B02D0FB6A3A6B1A6000BF203794
:10502000BD4680BD80B584B000AF786001F0C2FDA0
:10503000414B1B680133404A1360404B1B68002BF7
:1050400009D13E4A7B6813603B4B1B68012B10D192
:1050500000F014FE0DE03A4B1B68002B09D1374BD2
:105060001B68DA6A7B68DB6A9A4202D8334A7B683B
:105070001360344B1B680133324A1360314B1A689A
:105080007B685A647B68DB6A01229A402E4B1B685E
:1050900013432D4A13607B68DA6A2C4913469B0040
:1050A00013449B000B4404331B68FB607B68FA6865
:1050B0009A60FB689A687B68DA60FB689B687A682C
:1050C00004325A607B681A1DFB689A607B68DA6A52
:1050D00013469B0013449B001C4A1A447B685A6188
:1050E0007B68DA6A194913469B0013449B000B4402
:1050F0001B687A68D26A591C144813469B001344F3
:105100009B000344196001F08BFD0D4B1B68002BC5
:105110000ED00A4B1B68DA6A7B68DB6A9A4207D2B8
:105120000B4B4FF080521A60BFF34F8FBFF36F8F5E
:1051300000BF1037BD4680BDC0030024D402002448
:10514000CC030024DC030024C8030024D80200247C
:1051500004ED00E080B584B000AF78600023FB6010
:105160007B68002B1AD000F0DDF8144B1B68012B74
:105170000DD04FF0500372B683F31188BFF36F8FD9
:10518000BFF34F8F62B6BB6000BF00BFFDE70021D9
:10519000786801F06DF800F0D3F8F860FB68002B38
:1051A00007D1074B4FF080521A60BFF34F8FBFF308
:1051B0006F8F00BF1037BD4680BD00BFE8030024DD
:1051C00004ED00E080B590B004AF0123FB62002342
:1051D0003B6200237B6213E02B4A7B6A13441978FD
:1051E00007F110027B6A13440A461A7007F1100295
:1051F0007B6A13441B78002B06D07B6A01337B62E9
:105200007B6A0F2BE8DD00E000BF0023BB6231E0CA
:105210001E4B3B620023FB600023BB603A1D07F17D
:10522000080107F10C03184601F078F87868BB68AC
:10523000FA6807F110010292019300230093002302
:105240000246386AFFF7D3FD02461149BB6A41F8AE
:1052500023200F4ABB6A52F82330002B02D00123CF
:10526000FB6201E00023FB62FB6A002B06D0BB6AF5
:105270000133BB62BB6A002BCADD00E000BFFB6AE2
:1052800018463037BD4680BD54C200084D5C00084A
:10529000E403002480B584B000AFFFF793FFF8600B
:1052A000FB68012B02D101F06DF8F860FB68012B5F
:1052B00018D14FF0500372B683F31188BFF36F8F8C
:1052C000BFF34F8F62B6BB6000BF124B4FF0FF328F
:1052D0001A60114B01221A60104B00221A6001F073
:1052E00099FB11E0FB68B3F1FF3F0DD14FF0500384
:1052F00072B683F31188BFF36F8FBFF34F8F62B61F
:105300007B6000BF00BFFDE7054B1B6800BF103787
:10531000BD4680BDE0030024CC030024C403002468
:10532000D8C2000880B400AF044B1B680133034AA5
:10533000136000BFBD465DF8047B7047E80300249E
:1053400080B588B000AF0023FB610023BB6101F092
:1053500031FC00233B61764B1B68002B0DD14FF0D5
:10536000500372B683F31188BFF36F8FBFF34F8F73
:1053700062B63B6000BF00BFFDE76D4B1B68013BA1
:105380006B4A13606A4B1B68002B40F0CA80694B64
:105390001B68002B00F0C5808EE0674BDB68DB6884
:1053A000FB61FB699B6AFB60FB69DB69FA69126A56
:1053B0009A60FB691B6AFA69D2695A60FB685A688D
:1053C000FB6918339A4203D1FB691A6AFB685A6079
:1053D000FB6900229A62FB681B685A1EFB681A6010
:1053E000FB695B69BB60FB699B68FA69D2689A607C
:1053F000FB69DB68FA6992685A60BB685A68FB69A6
:1054000004339A4203D1FB69DA68BB685A60FB69CE
:1054100000225A61BB681B685A1EBB681A60FB6990
:10542000DB6A01229A40454B1B681343434A1360D1
:10543000FB69DA6A424913469B0013449B000B4404
:1054400004331B687B60FB697A689A607B689A68A2
:10545000FB69DA607B689B68FA6904325A60FB6911
:105460001A1D7B689A60FB69DA6A13469B00134435
:105470009B00334A1A44FB695A61FB69DA6A304976
:1054800013469B0013449B000B441B68FA69D26AC5
:10549000591C2B4813469B0013449B00034419607E
:1054A000FB69DA6A274B1B68DB6A9A4204D9264AF1
:1054B0003B69012142F823101F4B1B68002B7FF42E
:1054C0006CAFFB69002B01D000F072FC1F4B1B6816
:1054D0007B617B69002B12D000F06AF80346002B39
:1054E00004D0194A3B69012142F823107B69013B32
:1054F0007B617B69002BEFD1144B00221A60124AAA
:105500003B6952F82330002B0BD00123BB610D4BBC
:105510001B680F4B4FF080521A60BFF34F8FBFF3E1
:105520006F8F01F07DFBBB6918462037BD4680BDFB
:10553000E8030024C003002494030024C8030024CB
:10554000D8020024D4020024D4030024D003002471
:1055500004ED00E080B483B000AF054B1B687B60B6
:105560007B6818460C37BD465DF8047B704700BF6A
:10557000C403002480B582B000AF01F009FC002311
:105580007B60044B1B683B603B6818460837BD4690
:1055900080BD00BFC403002480B400AF034B1B6870
:1055A0001846BD465DF8047B704700BFC003002469
:1055B00080B58AB000AF00237B62804B1B68002B54
:1055C00040F0F1807E4B1B6801333B627C4A3B6AB2
:1055D00013603B6A002B23D17A4B1B681B68002B9E
:1055E0000DD04FF0500372B683F31188BFF36F8F65
:1055F000BFF34F8F62B67B6000BF00BFFDE7714B0A
:105600001B68FB61704B1B686E4A13606E4AFB6936
:1056100013606E4B1B6801336C4A136000F0C8FBCB
:105620006B4B1B683A6A9A42C0F0A880654B1B68B6
:105630001B68002B04D1664B4FF0FF321A609DE0CF
:10564000604B1B68DB68DB68BB61BB695B687B61C7
:105650003A6A7B699A4203D25D4A7B6913608DE0A6
:10566000BB695B693B61BB699B68BA69D2689A6038
:10567000BB69DB68BA6992685A603B695A68BB6962
:1056800004339A4203D1BB69DA683B695A60BB694B
:1056900000225A613B691B685A1E3B691A60BB694C
:1056A0009B6A002B1ED0BB699B6AFB60BB69DB69F0
:1056B000BA69126A9A60BB691B6ABA69D2695A6090
:1056C000FB685A68BB6918339A4203D1BB691A6AEE
:1056D000FB685A60BB6900229A62FB681B685A1E0D
:1056E000FB681A60BB69DB6A01229A40394B1B6870
:1056F0001343384A1360BB69DA6A374913469B0083
:1057000013449B000B4404331B68BB60BB69BA683D
:105710009A60BB689A68BB69DA60BB689B68BA69C3
:1057200004325A60BB691A1DBB689A60BB69DA6AA9
:1057300013469B0013449B00274A1A44BB695A61D5
:10574000BB69DA6A244913469B0013449B000B444F
:105750001B68BA69D26A591C1F4813469B00134440
:105760009B0003441960BB69DA6A1C4B1B68DB6A47
:105770009A427FF65BAF01237B6257E7174B1B68AA
:10578000DA6A154913469B0013449B000B441B68BF
:10579000012B01D901237B62114B1B68002B07D021
:1057A00001237B6204E00F4B1B6801330D4A136039
:1057B0007B6A18462837BD4680BD00BFE803002439
:1057C000C40300248C03002490030024D803002485
:1057D000E0030024C8030024D8020024D4020024DB
:1057E000D4030024D003002480B487B000AF294B39
:1057F0001B68002B03D0284B01221A6043E0264B84
:1058000000221A60254B1B68FB60FB68B3FA83F328
:10581000FB72FB7AC3F11F037B6121497A6913464E
:105820009B0013449B000B441B68002B0DD14FF0D1
:10583000500372B683F31188BFF36F8FBFF34F8F9E
:1058400062B67B6000BF00BFFDE77A6913469B002C
:1058500013449B00124A13443B613B695B685A68DE
:105860003B695A603B695A683B6908339A4203D1E5
:105870003B69DA683B695A603B695B68DB68094AE7
:105880001360084B1B6800BF1C37BD465DF8047BE6
:10589000704700BFE8030024D4030024C803002499
:1058A000D8020024D402002480B584B000AF786010
:1058B00039607B68002B0DD14FF0500372B683F333
:1058C0001188BFF36F8FBFF34F8F62B6FB6000BFCD
:1058D00000BFFDE7074B1B68183319467868FEF7D1
:1058E000BAF90121386800F0C3FC00BF1037BD468B
:1058F00080BD00BFD402002480B586B000AFF86040
:10590000B9607A60FB68002B0DD14FF0500372B67E
:1059100083F31188BFF36F8FBFF34F8F62B63B6184
:1059200000BF00BFFDE7FB685B687B61154B1B6830
:105930007A69DA61134B1B687A6992681A62114BB3
:105940001A687B699B6818325A600E4B1B6803F11A
:1059500018027B699A600B4B1B68FA689A62FB68B5
:105960001B685A1CFB681A607B68002B02D04FF042
:10597000FF33BB607968B86800F07AFC00BF183765
:10598000BD4680BDD402002480B48BB000AF7860E7
:105990007B68DB68DB683B623B6A002B0DD14FF014
:1059A000500372B683F31188BFF36F8FBFF34F8F2D
:1059B00062B6FB6000BF00BFFDE73B6A9B6AFB610C
:1059C0003B6ADB693A6A126A9A603B6A1B6A3A6A06
:1059D000D2695A60FB695A683B6A18339A4203D10C
:1059E0003B6A1A6AFB695A603B6A00229A62FB6949
:1059F0001B685A1EFB691A604B4B1B68002B60D159
:105A00003B6A5B697B613B6A9B683A6AD2689A60D1
:105A10003B6ADB683A6A92685A607B695A683B6AFB
:105A200004339A4203D13B6ADA687B695A603B6A65
:105A300000225A617B691B685A1E7B691A603B6AA7
:105A4000DB6A01229A40394B1B681343374A1360C3
:105A50003B6ADA6A364913469B0013449B000B44A9
:105A600004331B683B613B6A3A699A603B699A68F8
:105A70003B6ADA603B699B683A6A04325A603B6A67
:105A80001A1D3B699A603B6ADA6A13469B0013440D
:105A90009B00274A1A443B6A5A613B6ADA6A2449E6
:105AA00013469B0013449B000B441B683A6AD26A5E
:105AB000591C1F4813469B0013449B000344196064
:105AC0001BE01C4B5B68BB613B6ABA69DA61BB696E
:105AD0009A683B6A1A62BB699B683A6A18325A60D4
